{
  "contractName": "BugTracker",
  "abi": [
    {
      "anonymous": false,
      "inputs": [
        {
          "indexed": false,
          "internalType": "string",
          "name": "title",
          "type": "string"
        },
        {
          "indexed": false,
          "internalType": "string",
          "name": "application",
          "type": "string"
        },
        {
          "indexed": false,
          "internalType": "string",
          "name": "os",
          "type": "string"
        },
        {
          "indexed": false,
          "internalType": "string",
          "name": "severity",
          "type": "string"
        },
        {
          "indexed": false,
          "internalType": "string",
          "name": "description",
          "type": "string"
        },
        {
          "indexed": false,
          "internalType": "address",
          "name": "reporter",
          "type": "address"
        },
        {
          "indexed": false,
          "internalType": "uint256",
          "name": "timestamp",
          "type": "uint256"
        },
        {
          "indexed": false,
          "internalType": "string",
          "name": "txHash",
          "type": "string"
        }
      ],
      "name": "BugLogged",
      "type": "event"
    },
    {
      "inputs": [
        {
          "internalType": "uint256",
          "name": "",
          "type": "uint256"
        }
      ],
      "name": "bugs",
      "outputs": [
        {
          "internalType": "string",
          "name": "title",
          "type": "string"
        },
        {
          "internalType": "string",
          "name": "application",
          "type": "string"
        },
        {
          "internalType": "string",
          "name": "os",
          "type": "string"
        },
        {
          "internalType": "string",
          "name": "severity",
          "type": "string"
        },
        {
          "internalType": "string",
          "name": "description",
          "type": "string"
        },
        {
          "internalType": "address",
          "name": "reporter",
          "type": "address"
        },
        {
          "internalType": "uint256",
          "name": "timestamp",
          "type": "uint256"
        }
      ],
      "stateMutability": "view",
      "type": "function",
      "constant": true
    },
    {
      "inputs": [
        {
          "internalType": "string",
          "name": "_title",
          "type": "string"
        },
        {
          "internalType": "string",
          "name": "_application",
          "type": "string"
        },
        {
          "internalType": "string",
          "name": "_os",
          "type": "string"
        },
        {
          "internalType": "string",
          "name": "_severity",
          "type": "string"
        },
        {
          "internalType": "string",
          "name": "_description",
          "type": "string"
        }
      ],
      "name": "logBug",
      "outputs": [],
      "stateMutability": "nonpayable",
      "type": "function"
    },
    {
      "inputs": [],
      "name": "getBugs",
      "outputs": [
        {
          "components": [
            {
              "internalType": "string",
              "name": "title",
              "type": "string"
            },
            {
              "internalType": "string",
              "name": "application",
              "type": "string"
            },
            {
              "internalType": "string",
              "name": "os",
              "type": "string"
            },
            {
              "internalType": "string",
              "name": "severity",
              "type": "string"
            },
            {
              "internalType": "string",
              "name": "description",
              "type": "string"
            },
            {
              "internalType": "address",
              "name": "reporter",
              "type": "address"
            },
            {
              "internalType": "uint256",
              "name": "timestamp",
              "type": "uint256"
            }
          ],
          "internalType": "struct BugTracker.Bug[]",
          "name": "",
          "type": "tuple[]"
        }
      ],
      "stateMutability": "view",
      "type": "function",
      "constant": true
    }
  ],
  "bytecode": "0x608060405234801561001057600080fd5b50611416806100206000396000f3fe608060405234801561001057600080fd5b50600436106100415760003560e01c806373e1aabf14610046578063893acf2d1461007c578063c78131051461009a575b600080fd5b610060600480360381019061005b9190610cc9565b6100b6565b6040516100739796959493929190610ff3565b60405180910390f35b6100846103d0565b6040516100919190610fd1565b60405180910390f35b6100b460048036038101906100af9190610bda565b610769565b005b600081815481106100c657600080fd5b90600052602060002090600702016000915090508060000180546100e9906112b0565b80601f0160208091040260200160405190810160405280929190818152602001828054610115906112b0565b80156101625780601f1061013757610100808354040283529160200191610162565b820191906000526020600020905b81548152906001019060200180831161014557829003601f168201915b505050505090806001018054610177906112b0565b80601f01602080910402602001604051908101604052809291908181526020018280546101a3906112b0565b80156101f05780601f106101c5576101008083540402835291602001916101f0565b820191906000526020600020905b8154815290600101906020018083116101d357829003601f168201915b505050505090806002018054610205906112b0565b80601f0160208091040260200160405190810160405280929190818152602001828054610231906112b0565b801561027e5780601f106102535761010080835404028352916020019161027e565b820191906000526020600020905b81548152906001019060200180831161026157829003601f168201915b505050505090806003018054610293906112b0565b80601f01602080910402602001604051908101604052809291908181526020018280546102bf906112b0565b801561030c5780601f106102e15761010080835404028352916020019161030c565b820191906000526020600020905b8154815290600101906020018083116102ef57829003601f168201915b505050505090806004018054610321906112b0565b80601f016020809104026020016040519081016040528092919081815260200182805461034d906112b0565b801561039a5780601f1061036f5761010080835404028352916020019161039a565b820191906000526020600020905b81548152906001019060200180831161037d57829003601f168201915b5050505050908060050160009054906101000a900473ffffffffffffffffffffffffffffffffffffffff16908060060154905087565b60606000805480602002602001604051908101604052809291908181526020016000905b8282101561076057838290600052602060002090600702016040518060e0016040529081600082018054610427906112b0565b80601f0160208091040260200160405190810160405280929190818152602001828054610453906112b0565b80156104a05780601f10610475576101008083540402835291602001916104a0565b820191906000526020600020905b81548152906001019060200180831161048357829003601f168201915b505050505081526020016001820180546104b9906112b0565b80601f01602080910402602001604051908101604052809291908181526020018280546104e5906112b0565b80156105325780601f1061050757610100808354040283529160200191610532565b820191906000526020600020905b81548152906001019060200180831161051557829003601f168201915b5050505050815260200160028201805461054b906112b0565b80601f0160208091040260200160405190810160405280929190818152602001828054610577906112b0565b80156105c45780601f10610599576101008083540402835291602001916105c4565b820191906000526020600020905b8154815290600101906020018083116105a757829003601f168201915b505050505081526020016003820180546105dd906112b0565b80601f0160208091040260200160405190810160405280929190818152602001828054610609906112b0565b80156106565780601f1061062b57610100808354040283529160200191610656565b820191906000526020600020905b81548152906001019060200180831161063957829003601f168201915b5050505050815260200160048201805461066f906112b0565b80601f016020809104026020016040519081016040528092919081815260200182805461069b906112b0565b80156106e85780601f106106bd576101008083540402835291602001916106e8565b820191906000526020600020905b8154815290600101906020018083116106cb57829003601f168201915b505050505081526020016005820160009054906101000a900473ffffffffffffffffffffffffffffffffffffffff1673ffffffffffffffffffffffffffffffffffffffff1673ffffffffffffffffffffffffffffffffffffffff168152602001600682015481525050815260200190600101906103f4565b50505050905090565b60005b600080549050811015610917578580519060200120600082815481106107bb577f4e487b7100000000000000000000000000000000000000000000000000000000600052603260045260246000fd5b90600052602060002090600702016000016040516107d99190610fba565b6040518091039020148015610853575084805190602001206000828154811061082b577f4e487b7100000000000000000000000000000000000000000000000000000000600052603260045260246000fd5b90600052602060002090600702016001016040516108499190610fba565b6040518091039020145b80156108c4575083805190602001206000828154811061089c577f4e487b7100000000000000000000000000000000000000000000000000000000600052603260045260246000fd5b90600052602060002090600702016002016040516108ba9190610fba565b6040518091039020145b15610904576040517f08c379a00000000000000000000000000000000000000000000000000000000081526004016108fb9061112b565b60405180910390fd5b808061090f906112e2565b91505061076c565b5060006040518060e001604052808781526020018681526020018581526020018481526020018381526020013373ffffffffffffffffffffffffffffffffffffffff16815260200142815250908060018154018082558091505060019003906000526020600020906007020160009091909190915060008201518160000190805190602001906109a8929190610aba565b5060208201518160010190805190602001906109c5929190610aba565b5060408201518160020190805190602001906109e2929190610aba565b5060608201518160030190805190602001906109ff929190610aba565b506080820151816004019080519060200190610a1c929190610aba565b5060a08201518160050160006101000a81548173ffffffffffffffffffffffffffffffffffffffff021916908373ffffffffffffffffffffffffffffffffffffffff16021790555060c0820151816006015550507f865107d8ce224d1e8323665ec3597d386c22353d6438d6b71bb96e5d00d1144785858585853342604051610aab9796959493929190611085565b60405180910390a15050505050565b828054610ac6906112b0565b90600052602060002090601f016020900481019282610ae85760008555610b2f565b82601f10610b0157805160ff1916838001178555610b2f565b82800160010185558215610b2f579182015b82811115610b2e578251825591602001919060010190610b13565b5b509050610b3c9190610b40565b5090565b5b80821115610b59576000816000905550600101610b41565b5090565b6000610b70610b6b8461117c565b61114b565b905082815260208101848484011115610b8857600080fd5b610b9384828561126e565b509392505050565b600082601f830112610bac57600080fd5b8135610bbc848260208601610b5d565b91505092915050565b600081359050610bd4816113c9565b92915050565b600080600080600060a08688031215610bf257600080fd5b600086013567ffffffffffffffff811115610c0c57600080fd5b610c1888828901610b9b565b955050602086013567ffffffffffffffff811115610c3557600080fd5b610c4188828901610b9b565b945050604086013567ffffffffffffffff811115610c5e57600080fd5b610c6a88828901610b9b565b935050606086013567ffffffffffffffff811115610c8757600080fd5b610c9388828901610b9b565b925050608086013567ffffffffffffffff811115610cb057600080fd5b610cbc88828901610b9b565b9150509295509295909350565b600060208284031215610cdb57600080fd5b6000610ce984828501610bc5565b91505092915050565b6000610cfe8383610ee4565b905092915050565b610d0f81611232565b82525050565b610d1e81611232565b82525050565b6000610d2f826111d1565b610d3981856111f4565b935083602082028501610d4b856111ac565b8060005b85811015610d875784840389528151610d688582610cf2565b9450610d73836111e7565b925060208a01995050600181019050610d4f565b50829750879550505050505092915050565b60008154610da6816112b0565b610db08186611205565b94506001821660008114610dcb5760018114610ddc57610e0f565b60ff19831686528186019350610e0f565b610de5856111bc565b60005b83811015610e0757815481890152600182019150602081019050610de8565b838801955050505b50505092915050565b6000610e23826111dc565b610e2d8185611210565b9350610e3d81856020860161127d565b610e46816113b8565b840191505092915050565b6000610e5c826111dc565b610e668185611221565b9350610e7681856020860161127d565b610e7f816113b8565b840191505092915050565b6000610e97601283611221565b91507f42756720616c72656164792065786973747300000000000000000000000000006000830152602082019050919050565b6000610ed7600083611221565b9150600082019050919050565b600060e0830160008301518482036000860152610f018282610e18565b91505060208301518482036020860152610f1b8282610e18565b91505060408301518482036040860152610f358282610e18565b91505060608301518482036060860152610f4f8282610e18565b91505060808301518482036080860152610f698282610e18565b91505060a0830151610f7e60a0860182610d06565b5060c0830151610f9160c0860182610f9c565b508091505092915050565b610fa581611264565b82525050565b610fb481611264565b82525050565b6000610fc68284610d99565b915081905092915050565b60006020820190508181036000830152610feb8184610d24565b905092915050565b600060e082019050818103600083015261100d818a610e51565b905081810360208301526110218189610e51565b905081810360408301526110358188610e51565b905081810360608301526110498187610e51565b9050818103608083015261105d8186610e51565b905061106c60a0830185610d15565b61107960c0830184610fab565b98975050505050505050565b60006101008201905081810360008301526110a0818a610e51565b905081810360208301526110b48189610e51565b905081810360408301526110c88188610e51565b905081810360608301526110dc8187610e51565b905081810360808301526110f08186610e51565b90506110ff60a0830185610d15565b61110c60c0830184610fab565b81810360e083015261111d81610eca565b905098975050505050505050565b6000602082019050818103600083015261114481610e8a565b9050919050565b6000604051905081810181811067ffffffffffffffff8211171561117257611171611389565b5b8060405250919050565b600067ffffffffffffffff82111561119757611196611389565b5b601f19601f8301169050602081019050919050565b6000819050602082019050919050565b60008190508160005260206000209050919050565b600081519050919050565b600081519050919050565b6000602082019050919050565b600082825260208201905092915050565b600081905092915050565b600082825260208201905092915050565b600082825260208201905092915050565b600061123d82611244565b9050919050565b600073ffffffffffffffffffffffffffffffffffffffff82169050919050565b6000819050919050565b82818337600083830152505050565b60005b8381101561129b578082015181840152602081019050611280565b838111156112aa576000848401525b50505050565b600060028204905060018216806112c857607f821691505b602082108114156112dc576112db61135a565b5b50919050565b60006112ed82611264565b91507fffffffffffffffffffffffffffffffffffffffffffffffffffffffffffffffff8214156113205761131f61132b565b5b600182019050919050565b7f4e487b7100000000000000000000000000000000000000000000000000000000600052601160045260246000fd5b7f4e487b7100000000000000000000000000000000000000000000000000000000600052602260045260246000fd5b7f4e487b7100000000000000000000000000000000000000000000000000000000600052604160045260246000fd5b6000601f19601f8301169050919050565b6113d281611264565b81146113dd57600080fd5b5056fea2646970667358221220aee3e64bb4711ff52b79c3418807f1333771a3745732e758437b1bff03d660de64736f6c63430008000033",
  "immutableReferences": {},
  "source": "// SPDX-License-Identifier: MIT \r\npragma solidity ^0.8.0;\r\n\r\ncontract BugTracker {\r\n    struct Bug {\r\n        string title;\r\n        string application;\r\n        string os;\r\n        string severity;\r\n        string description;\r\n        address reporter;\r\n        uint timestamp;\r\n    }\r\n\r\n    Bug[] public bugs;\r\n\r\n    event BugLogged(\r\n        string title,\r\n        string application,\r\n        string os,\r\n        string severity,\r\n        string description,\r\n        address reporter,\r\n        uint timestamp,\r\n        string txHash\r\n    );\r\n\r\n    function logBug(\r\n        string memory _title,\r\n        string memory _application,\r\n        string memory _os,\r\n        string memory _severity,\r\n        string memory _description\r\n    ) public {\r\n        // Check if bug already exists\r\n        for (uint i = 0; i < bugs.length; i++) {\r\n            if (keccak256(bytes(bugs[i].title)) == keccak256(bytes(_title)) &&\r\n                keccak256(bytes(bugs[i].application)) == keccak256(bytes(_application)) &&\r\n                keccak256(bytes(bugs[i].os)) == keccak256(bytes(_os))) {\r\n                revert(\"Bug already exists\");\r\n            }\r\n        }\r\n        bugs.push(Bug(_title, _application, _os, _severity, _description, msg.sender, block.timestamp));\r\n        emit BugLogged(_title, _application, _os, _severity, _description, msg.sender, block.timestamp, \"\");\r\n    }\r\n\r\n    function getBugs() public view returns (Bug[] memory) {\r\n        return bugs;\r\n    }\r\n}\r\n",
  "sourcePath": "C:\\Users\\v-thmwan\\bugtracker1\\contracts\\BugTracker.sol",
  "compiler": {
    "name": "solc",
    "version": "0.8.0+commit.c7dfd78e.Emscripten.clang"
  },
  "schemaVersion": "3.4.16",
  "updatedAt": "2024-06-13T12:09:34.170Z",
  "networkType": "ethereum",
  "devdoc": {
    "kind": "dev",
    "methods": {},
    "version": 1
  },
  "userdoc": {
    "kind": "user",
    "methods": {},
    "version": 1
  }
}